S31508000000A873002031030008DF4600082D390008D0
S31508000010DD4600083125000829990008000000007F
S31508000020000000000000000000000000790200083F
S31508000030392B000800000000CD020008795C000892
S315080000404B0300084B0300084B0300084B0300084A
S315080000504B0300084B0300084B0300084B0300083A
S315080000604B0300084B0300084B0300084B0300082A
S315080000704B0300084B0300084B0300084B0300081A
S315080000804B0300084B0300084B0300084B0300080A
S31508000090692500084B0300084B0300084B030008BA
S315080000A04B0300084B0300084B0300084B030008EA
S315080000B0ED5F0008FD5F0008116000084B030008AB
S315080000C04B0300084B0300084B0300084B030008CA
S315080000D04B030008996A0008DD6B0008816E00086A
S315080000E04B0300084B0300084B030008396000085F
S315080000F00D6400084B030008656000084B03000800
S315080001004B0300084B030008256000084B03000852
S315080001104B030008BD6900084B0300084B030008A1
S315080001204B0300084B0300084B0300084B03000869
S315080001304B0300084B0300084B0300084B03000859
S315080001404B0300084B0300084B030008694D0008E1
S315080001504B0300084B0300084B0300084B03000839
S315080001604B0300084B0300084B0300084B03000829
S315080001704B0300084B0300084B0300084B03000819
S315080001804B0300084B03000800F002F800F064F87F
S315080001900AA090E8000C82448344AAF10107DA45D4
S315080001A001D100F059F8AFF2090EBAE80F0013F0C2
S315080001B0010F18BFFB1A43F001031847C8260100B0
S315080001C0E82601000A444FF0000C10F8013B13F032
S315080001D0070408BF10F8014B1D1108BF10F8015B92
S315080001E0641E05D010F8016B641E01F8016BF9D185
S315080001F013F0080F1EBF10F8014BAD1C0C1B09D1DC
S315080002006D1E58BF01F801CBFAD505E014F8016B4D
S3150800021001F8016B6D1EF9D59142D6D370470000DF
S315080002200023002400250026103A28BF78C1FBD8F1
S31508000230520728BF30C148BF0B607047642900F0D9
S31508000240CF80732900F0F482002070471FB510F0A4
S3150800025026FB1FBD10B510BD00F03EFB1146FFF78B
S31508000260F5FF0BF023FF00F05CFB03B4FFF7F2FF8A
S3150800027003BC0BF06CF900002A4B19680868B0E853
S31508000280F04F80F30988BFF36F8F4FF0000080F3BB
S31508000290118870470000000006480068006880F36F
S315080002A0088862B661B6BFF34F8FBFF36F8F00DF62
S315080002B000BF00BF08ED00E0DFF80C00016841F45C
S315080002C070010160704700BF88ED00E0EFF3098018
S315080002D0BFF36F8F134B1A681EF0100F08BF20ED7F
S315080002E0108A20E9F04F106008B44FF0500080F3F0
S315080002F01188BFF34F8FBFF36F8F0EF03BFE4FF0A1
S31508000300000080F3118808BC19680868B0E8F04F47
S315080003101EF0100F08BFB0EC108A80F30988BFF3EF
S315080003206F8F704750040020EFF305807047000078
S315080003300948804709480047FEE7FEE7FEE7FEE76B
S31508000340FEE7FEE7FEE7FEE7FEE7FEE704480549A7
S31508000350054A064B704700008D5C000889010008B5
S31508000360A86D0020A8730020A86F0020A86F0020A1
S31508000370704700000FB4044910B503AA029800F0AC
S315080003805BFA10BC5DF814FB3406002070B50C4609
S315080003900546012A05D02878800600D5EA69002393
S315080003A002E0012305E05B1C934202D2E05C0028D0
S315080003B0F9D1A869E618C01AA861286A18442862FB
S315080003C02846AFF3008004E0D5E9012114F8010BB3
S315080003D09047B442F8D32846AFF3008070BD0000BA
S315080003E02DE9F0410646002410687529314616A500
S315080003F010D0AFF30080002802DA404213A507E0C8
S3150800040031688A0701D512A502E0490704D511A566
S31508000410012401E0AFF3008000210A2206F1240737
S3150800042009E0B0FBF2FCB0FBF2F302FB1C00303033
S3150800043078541846491C0028F3D123462A463046E4
S31508000440BDE8F04100F071B9000000002D00000081
S315080004502B000000200000002DE9F05F89460446C5
S315080004604FF0000ADFF874B1FB44C0F820A020461C
S31508000470E1688847002874D0252806D0D4E90121E8
S315080004809047206A401C2062F1E700265F46204616
S31508000490E16888472028054607DB312D05D27819FB
S315080004A010F8200C08B10643F1E7B00701D526F08D
S315080004B00406C4F81CA00027C4F818A02A2D09D0E1
S315080004C028460BF03DF838B304EB8708303DC8F8EA
S315080004D0185019E059F8041B204604EB870291616D
S315080004E0E1688847012F054618D1E069002820DA17
S315080004F026F020061DE0D8F8180000EB800005EB72
S3150800050040003038C8F818002046E1688847054694
S315080005100BF016F80028EED1012F0AD02E2D08D19F
S315080005202046E16888477F1C0546022F46F02006CC
S31508000530C4DBA069002803DA404246F00106A06140
S31508000540F00701D026F010066C2D0BD0682D09D0C7
S315080005504C2D39D06A2D35D0742D35D07A2D33D01F
S3150800056016E038E0E1682F4620468847B842054637
S3150800057009D16C2F26D04FF48060E16806432046E7
S315080005808847054604E06C2F1AD04FF4807006435E
S315080005900DB3A5F14100192802D8203546F40066A6
S315080005A04A462946204626604E46FFF747FE80B152
S315080005B001280BD0F61D26F0070000F1080956E7BA
S315080005C04020E4E78020D8E70020D6E706F10409B2
S315080005D04DE7284652E7206ABDE8F09F5A210100F8
S315080005E0032A40F2308010F0030C00F0158011F851
S315080005F0013BBCF1020F624498BF11F801CB00F829
S31508000600013B38BF11F8013BA2F1040298BF00F87C
S3150800061001CB38BF00F8013B11F0030300F01E813F
S31508000620083AC0F0088051F8043B083A51F804CB60
S31508000630A0E80810F5E7121D5CBF51F8043B40F826
S31508000640043BAFF30080D20724BF11F8013B11F831
S3150800065001CB48BF11F8012B24BF00F8013B00F875
S3150800066001CB48BF00F8012B704702F0FF0343EAAD
S31508000670032242EA024200F002B84FF000020429BF
S31508000680C0F0128010F0030C00F01B80CCF1040CB3
S31508000690BCF1020F18BF00F8012BA8BF20F8022BE7
S315080006A0A1EB0C0100F00DB85FEAC17C24BF00F88D
S315080006B0012B00F8012B48BF00F8012B70474FF0BB
S315080006C0000200B5134694469646203922BFA0E894
S315080006D00C50A0E80C50B1F12001BFF4F7AF0907A0
S315080006E028BFA0E80C5048BF0CC05DF804EB890091
S315080006F028BF40F8042B08BF704748BF20F8022BD4
S3150800070011F0804F18BF00F8012B704770477047EB
S315080007107047704710B500F0D3F8006810BD10B5E3
S31508000720044600F0CDF8046010BD2DE9F0470D46EB
S3150800073099469246044600F124080168880604D5BD
S31508000740E06921F01001216000E00120A84201DDE6
S31508000750471B00E00027A1697A1902EB0900081A6D
S31508000760A0612078C00602D42046AFF30080002698
S3150800077008E0D4E901211AF806009047206A401CCF
S31508000780761C20624E45F4DB2078C0060AD5204642
S31508000790AFF3008006E0D4E9012130209047206AB3
S315080007A0401C2062381EA7F10107F4DC07E0D4E9F3
S315080007B0012118F805009047206A401C2062281E6F
S315080007C0A5F10105F3DC2046AFF30080207800068A
S315080007D002D50220BDE8F0870120FBE701694A1C23
S315080007E002610878704700B58FB0CDE90131002164
S315080007F0059105497944CDE9031011466846FFF786
S315080008002BFE0FB000BD0000E5FFFFFF10B54369E2
S3150800081013B1AFF3008001E0FFF7B8FD012010BD6A
S31508000820127800F124010A7000224A700122EDE7CD
S3150800083011684FF0FF32E9E7074B70B50D467B4468
S31508000840FFF7D1FF0446284600F03EF810B14FF0F6
S31508000850FF3070BD204670BD5BB2000010B5203A6F
S31508000860C0F00B80B1E81850203AA0E81850B1E85B
S315080008701850A0E81850BFF4F5AF5FEA027C24BF11
S31508000880B1E81850A0E8185044BF18C918C0BDE808
S3150800089010405FEA827C24BF51F8043B40F8043BD1
S315080008A008BF7047D20728BF31F8023B48BF11F886
S315080008B0012B28BF20F8023B48BF00F8012B7047E0
S315080008C000487047486D0020007B00F080007047A4
S315080008D000487047486D00207546FFF7F9FFAE4699
S315080008E005006946534620F00700854618B020B52E
S315080008F0FFF72CFDBDE820404FF000064FF000073B
S315080009004FF000084FF0000B21F00701AC46ACE8A9
S31508000910C009ACE8C009ACE8C009ACE8C0098D4616
S31508000920704710B50446AFF300802046BDE8104076
S31508000930FFF79BBC0029816802D041F0010101E064
S3150800094021F0010181607047084B10B5D3F80423E4
S3150800095007490A40D0E900142143D0E9024004437C
S3150800096021431143C3F8041310BD000000200140C1
S31508000970E030FCFFC06C80B2704702460020126867
S315080009800A4200D00120704730B542680F4B0C79F7
S315080009901A400B6842EA04221343436082680C4BF0
S315080009A04D791A40D1E9034323438C6844EA450448
S315080009B0234313438360C26A097D22F47002491EE9
S315080009C0C9B242EA0151C16230BD0000FFFEFFFC18
S315080009D0FDF7FFC070B5072609290AD9C568A1F130
S315080009E00A0404EB4404A640B543A3401D43C5606E
S315080009F007E0056901EB4104A640B543A3401D4342
S31508000A0005611F23072A09D2446B521E02EB820294
S31508000A1093409C4391400C43446370BD0D2A09D210
S31508000A20046BD21F02EB820293409C4391400C4315
S31508000A30046370BDC46A0D3A02EB820293409C437C
S31508000A4091400C43C46270BD816841F08041816069
S31508000A507047000038B535489FED351A9FED350AC1
S31508000A60D0ED000A10EE810AF3EE0B0A80EE201A8A
S31508000A70BDEEC10A10EE103A642B00DD64232E4841
S31508000A80DFED2E0A90ED000A20EE200ABDEEC00A20
S31508000A9010EE100A002800DA4042294991ED000AB2
S31508000AA020EE200ABDEEC00A10EE101A002900DA60
S31508000AB04942244C2279A2B100222271224C25787F
S31508000AC0012D10D0214DB5F91C403AB3B5F91A20BD
S31508000AD0B5F9181001B02346BDE830401CA0FFF751
S31508000AE049BC0122E9E71E4890ED000A1D48BDEE03
S31508000AF0C00A10EE103A90ED000A1B48BDEEC00A77
S31508000B0010EE102A90ED000A18A0BDEEC00A10EEED
S31508000B10101AFFF72FFC0020207038BDCAB2C1B2E8
S31508000B2016A00094FFF726FC38BD000050050020EB
S31508000B3000007A4400401C46500B00200000C842C2
S31508000B40640B002064030020FD03002060090020D8
S31508000B507B4225643A25643A25647D24000000001A
S31508000B608C03002088030020840300207B4325642F
S31508000B703A25643A25647D24000000007B412564FB
S31508000B803A25643A25643A25647D2400054910B15E
S31508000B9040F21A4001E04FF4FA7088600249086092
S31508000BA070470000B003002040040140054910B119
S31508000BB040F2A46001E040F28A20C8600249086059
S31508000BC070470000B00300203C0401402DE9F043C3
S31508000BD0224D234A8146EC6B2CBB002002F5A876F1
S31508000BE040F2EE2740F2E24C40F2D66840F6CA03DD
S31508000BF056F82010012906D0022907D0032908D063
S31508000C0004290BD108E042F8207007E042F820C01A
S31508000C1004E042F8208001E042F82030401C042815
S31508000C20E6DB641CEC630F494846B9F1010F08D0AE
S31508000C30022808D003280CD0B9F1040F0BD0486954
S31508000C4003E0106800E05068486107490860BDE89D
S31508000C50F0839068F8E7D068F6E7000034000020D3
S31508000C60F0070020B00300203404014070B5154C8D
S31508000C70054621680A31216008D40020FFF786FF5F
S31508000C800020FFF793FF012004F0C8FF206840F614
S31508000C90963188420BDB0020FFF778FF0120FFF72B
S31508000CA085FF2846FFF792FF002004F0B7FF20686B
S31508000CB040F67E7188424FF0000001DB206001207B
S31508000CC070BD0000B400002010B5204C20680A3022
S31508000CD0206009D40120FFF759FF0120FFF766FFBE
S31508000CE0002004F09BFF2068B0F57A7F08DB01201E
S31508000CF0FFF74CFF0020FFF759FF002004F08EFF96
S31508000D002068B0F5FA6F09DB0120FFF73FFF0020E6
S31508000D10FFF74CFF4FF0FF3004F080FF216841F2E7
S31508000D206630814208DB0020FFF730FF0020FFF71E
S31508000D303DFF002004F072FF206841F24E718842A0
S31508000D404FF0000001DB2060012010BDB400002038
S31508000D5010B51D4C20680A30206009D40120FFF721
S31508000D6015FF0120FFF722FF002004F057FF206837
S31508000D70B0F57A7F08DB0120FFF708FF0020FFF7B0
S31508000D8015FF002004F04AFF2068B0F5FA6F09DB6A
S31508000D900120FFF7FBFE0020FFF708FF4FF0FF30AA
S31508000DA004F03CFF206841F2663188420ADB0120E4
S31508000DB0FFF7ECFE0020FFF7F9FE002004F02EFFF7
S31508000DC0012010BD002010BDB400002010B51D4C38
S31508000DD020680A30206009D40120FFF7D7FE0020DA
S31508000DE0FFF7E4FE002004F019FF2068B0F57A7FCB
S31508000DF008DB0120FFF7CAFE0020FFF7D7FE012017
S31508000E0004F00CFF206840F67E71884208DB01205A
S31508000E10FFF7BCFE0120FFF7C9FE002004F0FEFE26
S31508000E20206841F2663188420ADB0120FFF7AEFEF0
S31508000E300120FFF7BBFE002004F0F0FE012010BDE4
S31508000E40002010BDB400002070B51F4C054621686F
S31508000E500A31216008D40020FFF798FE0120FFF729
S31508000E60A5FE002004F0DAFE2068B0F57A7F08DBDC
S31508000E700020FFF78BFE0020FFF798FE002004F005
S31508000E80CDFE2068B0F5FA6F0CDB0020FFF77EFE7A
S31508000E900020FFF78BFE2846FFF798FE4FF0FF303D
S31508000EA004F0BCFE206841F2663188424FF000002B
S31508000EB008DBFFF76BFE0020FFF778FE002004F042
S31508000EC0ADFE012070BD0000B4000020F0B5224B35
S31508000ED00027997ADE7A491CCDB2711CCCB2597AB0
S31508000EE02B2812D081B31A7A03F1300C521CD2B2D5
S31508000EF00CEB810C1A725CF804CC1CF802C0844511
S31508000F000CD19D72222D06D01CE0491C59721F7205
S31508000F109D72DC7216E09F72DF7211E00E4D283565
S31508000F2005EB810555F8045CAA5C824203D00129C9
S31508000F300BD10D2E09D3DC722C2C03D1DF729F72D4
S31508000F405F721F720120F0BD03E09F72DF725F724D
S31508000F501F720020F7E70000F005002030B58DB0BD
S31508000F600121022004F020FB01210D02284604F08D
S31508000F703FFB032002218DF82C000A9100248DF8EE
S31508000F802F400AA9134802F03FFA0121284604F027
S31508000F903BFB0021284604F037FB069468020994B7
S31508000FA0CDE9070406A8FFF7CFFC8DF804400094A6
S31508000FB08DF80540029404940120074C8DF814001E
S31508000FC069462046FFF7E0FC01212046FFF7B2FC00
S31508000FD00DB030BD000402400020014070B58CB051
S31508000FE00121022004F0E0FA01214E02304604F005
S31508000FF0FFFA03208DF82C00012500240A958DF8A8
S315080010002F400AA9134802F0FFF90121304604F0DF
S31508001010FBFA0021304604F0F7FA069468040994AE
S31508001020CDE9070406A8FFF78FFC8DF80440009465
S315080010308DF8054002940494074C8DF814506946BF
S315080010402046FFF7A1FC01212046FFF773FC0CB0F0
S3150800105070BD000000040240002101402DED028B06
S3150800106082B00AF027FDDFF8CCB3F7EE008A4FF41A
S315080010707A799FEDF18AF14EDFF8C4A30024019036
S315080010800A2101A80DF098FDEE4940F6B8324868E5
S31508001090904201DA401C4860EB48C168491CC160AF
S315080010A002F01EFB03F0FAF8E84D2878012805D16E
S315080010B0E748007810B92C7002F094F9E548006802
S315080010C020B1E54F387803287ED0FDE3E34890ED5C
S315080010D0001AE348D0ED000AE24890ED000A01F054
S315080010E02DFDE148007808B102F012FADF4890EDCC
S315080010F0000ABDEEC00A10EE100A05F037FC80B1F2
S31508001100287830B1DA48D0F80C0210B1D9480078FE
S3150800111038B100231A4619461846009404F080FC94
S31508001120AEE70AF0D5FC03F09BFFC74DD24F8035DA
S3150800113097ED000AD5ED020AB8EEC00AF8EEE00A05
S3150800114003F01AFFDFF8F48208F1300888ED000A88
S3150800115097ED030AD5ED030AB8EEC00AF8EEE00AE1
S3150800116003F096FE88ED010A97ED060AD5ED040A06
S31508001170B8EEC00AF8EEE00A03F0FEFE88ED020AB1
S3150800118003F010FEB74888ED030AD8ED010A90ED82
S31508001190001ADFEDBA1AAC48B14941EE210A30EE21
S315080011A0C00AD0ED080A30EE201A80ED1C1A98ED18
S315080011B0020AD1ED000A9FEDB22A10EE820AD8ED96
S315080011C0000A30EE200A00E0FAE3D0ED090AA34946
S315080011D030EE200A80ED1D0AD1ED000A60EEA11A54
S315080011E0F5EEC00AF1EE10FAC0ED1E1A06DDA8F5F6
S315080011F09071D1ED010A70EEA80A0AE0F5EEC00A70
S31508001200F1EE10FA07D28D49F039D1ED010A70EEE8
S31508001210E80AC1ED010A89499A4BF039D1ED010A6C
S3150800122010EE902A9A4205DBDFED971A70EEE10A76
S31508001230C1ED010A10EE902A944B9A4205D3DFEDD0
S31508001240921A70EEA10AC1ED010A7C499048F0395C
S31508001250DFF84882D1ED0A0AF1EE601A70EEC10A8B
S3150800126071EEC11A30EEC01A31EEC02A71EE801A3C
S3150800127030EE800A80ED012A8648C0ED011A8648BC
S3150800128080ED011A88ED010A44F23C1003F09AF841
S315080012900AF05EF98248007808283DD2DFE800F0B7
S315080012A0041A5B7604760404009498ED010A7A48D9
S315080012B0BDEEC00A10EE103A90ED010A7548B1EE7F
S315080012C0400ABDEEC00A10EE102A90ED010AB1EEF2
S315080012D0400A53E0009498ED010A6F48BDEEC00A33
S315080012E010EE103A90ED010A6A48B1EE400ABDEEDA
S315080012F0C00A10EE102A90ED010A6548BDEEC00A34
S3150800130010EE101A90ED010AB1EE400ABDEEC00AC1
S3150800131010EE100A04F084FB4B498869012837D07F
S31508001320022842D0032856D0042868D0052877D04A
S31508001330062876D0072875D0082874D0092873D0CF
S315080013400A2872D00B2871D00C2870D00D286FD0BF
S315080013500E286ED0ACE153480068009098ED010A5B
S315080013604D48BDEEC00A10EE103A90ED010A494804
S31508001370BDEEC00A10EE102A90ED010A4448BDEEF3
S31508001380C00A10EE101A90ED010ABFE70094E5E7CF
S31508001390AC60EC602C6181ED088A28680A30286008
S315080013A04845D7DD02202C60886140F28A20AC606F
S315080013B0C5E903409FED3C0A40F2E24281ED080A86
S315080013C0F868904274DA28680A3028604845C1DD12
S315080013D003202C60886140F28A20C5E902402C610E
S315080013E081ED088AF868A0F26D203B2860D228684B
S315080013F00A3028604845ADDD04202C6088610F4816
S31508001400AC60EC60F0382C6190ED010A274B10EEC9
S31508001410102A9A424DDA30EE280A80ED010A4BE08E
S3150800142052E077E08AE0A2E0B7E0CCE0E9E0FEE04F
S3150800143011E127E10006002000000000F008002066
S31508001440B0030020D4110020340000200100002041
S31508001450A403002098030020A6030020E003002030
S31508001460DC030020D803002091030020500500204B
S315080014700080414280030020E46C002000401C46A6
S3150800148000803B46000034430000B443000034C3E8
S31508001490500B0020640B0020780B00208C0B0020DA
S315080014A081030020D40300200060EA450000B4420E
S315080014B09BE028680A3028602A6840F6B8308242DD
S315080014C07EDD05202C608861EC60FA6840F698009D
S315080014D0824209DA68680A306860484505DD40F2E4
S315080014E08A202C61A86004E06C6040F28A20AC6017
S315080014F028611FED130A40F24C4081ED080A82422A
S3150800150073DA28680A302860484559DD2C600620B9
S315080015106C6088614FF4FA70C5E902402C6181ED70
S31508001520088AF868A0F2D7103B285ED228680A30E5
S315080015302860484544DD07202C608861AC60FF4878
S31508001540EC602C6190ED010AB5EEC00AF1EE10FAD6
S3150800155005DD30EE680A80ED010A286802E0286891
S315080015600A30286048452BDD08202C60886140F247
S315080015708A20C5E902041FED340A2C6181ED080AA8
S31508001580F86840F24C4290422FDA28680A30286000
S31508001590484515DD09202C6088614FF4FA70C5E9C5
S315080015A002402C6181ED088AF868A0F2D7103B2822
S315080015B01BD228680A302860484579DD0A2000E0F1
S315080015C076E02C608861AC60EC60DC4B2C6181EDC8
S315080015D0088A93ED010ADA4A10EE100A904205D2FB
S315080015E030EE680A83ED010A03E06CE028680A30E9
S315080015F028602A6840F6B830824259DD0B202C60F4
S31508001600886140F28A20C5E902041FED590A2C6157
S3150800161081ED080AF86840F2D662904253DA2868E3
S315080016200A302860484543DD0C202C60886140F26A
S315080016307E40C5E902402C6181ED088AF868A0F26F
S3150800164061403B283FD228680A30286048452FDD8C
S315080016500D202C60886140F27E40C5E902409FED6E
S31508001660B90A2C6181ED090AB86940F698029042D8
S3150800167029DA28680A302860B0F5FA7F18DD0E20C6
S315080016802C6088614FF4C860AC60C5E9034081ED01
S31508001690098AB869A0F223603B2814D228680A3060
S315080016A02860484504DD2C608C61C869401CC86107
S315080016B0A548C069012808D002280FD003284DD0B4
S315080016C004286BD0BCE02C60F2E728680A30286052
S315080016D0484575DD9C4802212C60C161DFF868E247
S315080016E04FF4C861DEF83800401CCEF838009FED8C
S315080016F0970A00EE900AAC60C5E90341F8EEE00AE5
S31508001700934930EE200A86ED010A0B6813B14FF0B3
S31508001710010C01E04FF0000C8868B0F1000800D019
S3150800172001200A690CEA000C0AB1012000E0002039
S3150800173089690CEA000C09B1012000E000201CEAC6
S31508001740000F3DD083482C606C60C0E90221C0E9D7
S3150800175000388EED088A0321CEF81C10AC60EC60C8
S3150800176076482C6186ED018A0121C16290ED010A55
S31508001770B5EEC00AF1EE10FA04D230EE280A80ED72
S31508001780010A02E028680A302860296840F6B8305D
S3150800179081429EDD6C4804212C60C161AC606748BB
S315080017A0EC602C619FED6C0A6949C46286ED010AFA
S315080017B0D1F800C0BCF1000F03D04FF0010802E0D9
S315080017C0BBE04FF000088B680BB1012000E0002059
S315080017D00A6908EA00080AB1012000E000208969C0
S315080017E008EA000809B1012000E0002018EA000F05
S315080017F0A7D058482C6010306C60C0E90221C0E9B7
S3150800180000C3DFF8508100210346A0F5B07E58F8E2
S315080018102120002053F820C0624505D14F4A52F8CE
S3150800182020204EF8212002E0401C0428F2DB491C47
S315080018300429ECDB444880ED088AC169491CC1616A
S31508001840DFF80481D8F81C00052808D0062826D019
S3150800185007283ED008285FD009286DD0A9E0AC60DB
S31508001860EC6036482C6186ED018A0121C16290ED53
S31508001870010A334A10EE101A914204D230EE680A71
S3150800188080ED010A02E028680A302860296840F6D7
S31508001890B830814251DD06212C60C8F81C10AC60B6
S315080018A02649EC6001202C619FED2D0AC86286ED61
S315080018B0010ADBF800003B380328286801D20A3001
S315080018C028604845E6DD00E0F1E30721C8F81C106A
S315080018D02C60AC601948EC609FED210A2C619030B1
S315080018E086ED010AC462903801219FED1E0AC16285
S315080018F080ED010A9FED1C0A40F2B63288ED090A0E
S31508001900B86990427EDA28680A3028604845C1DD01
S3150800191008202C60C8F81C004FF4AF70AC60C5E90D
S3150800192003409FED0F0A86ED010A88ED098AB8691A
S31508001930A0F241103B2819E028E0A9E2000800209F
S315080019400000B4C20000FAC53400002000007A4343
S31508001950006D0020300900200000024350030020DB
S31508001960000070420000B4C25555D0C54AD2DBF813
S3150800197000003A2846DD3E28C4DA28680A3028607E
S31508001980484587DD09202C60C8F81C004FF4AF7065
S31508001990AC60C5E903401FED0E0AFE4886ED010A54
S315080019A0C068FFF763F920B1D8F81C10491CC8F8BD
S315080019B01C10D8F81C000A2803D00B281BD02CE0D2
S315080019C0C6E3AC60EC601FED1A0A2C6186ED010ACD
S315080019D0B869C8287EDC88ED098ADBF800003B3840
S315080019E00328C3D228680A30286048458FDD0B20B3
S315080019F02C60C8F81C00C820AC60C5E903401FED80
S31508001A00280A00E029E286ED010AFFF75DF920B110
S31508001A10D8F81C10491CC8F81C10D8F81C000C284B
S31508001A2002D00D281DD02FE04FF4AF709FEDDA0AD3
S31508001A30AC60C5E9034086ED010AB869A0F2411019
S31508001A403B2893D2DBF800004E2893DD522893DA20
S31508001A5028680A302860484593DD0D212C60C8F8AF
S31508001A601C104FF4AF709FEDCC0AAC60C5E903407B
S31508001A70C84886ED010A8068FFF7F8F820B1D8F85B
S31508001A801C10491CC8F81C10D8F81C000E2802D0D7
S31508001A900F281AD02BE0AC60EC609FEDBF0A2C61D2
S31508001AA086ED010AB869C82814DC88ED098ADBF8CE
S31508001AB000004F38032894D228680A302860484521
S31508001AC094DD0F202C60C8F81C00C8209FEDB20AD0
S31508001AD0AC6000E0BBE0C5E9034086ED010AFFF70C
S31508001AE0F3F820B1D8F81C10491CC8F81C10D8F80F
S31508001AF01C00102802D011281DD02FE04FF4AF701B
S31508001B009FEDA60AAC60C5E9034086ED010AB869EF
S31508001B10A0F241103B2894D2DBF80000762894DD29
S31508001B207A2894DA28680A302860484594DD112115
S31508001B302C60C8F81C104FF4AF709FED980AAC6083
S31508001B40C5E90340934886ED010A4068FFF78EF819
S31508001B5020B1D8F81C10491CC8F81C10D8F81C006D
S31508001B60122802D013281AD029E0AC60EC609FED49
S31508001B708B0A2C6186ED010AB869C82867DC88EDEE
S31508001B80098ADBF800007738032894D228680A30D7
S31508001B902860484594DD13202C60C8F81C00C8202E
S31508001BA09FED7E0AAC60C5E9034086ED010AFFF7A2
S31508001BB08BF820B1D8F81C10491CC8F81C10D8F8A6
S31508001BC01C00142802D015281DD02FE04FF4AF7042
S31508001BD09FED730AAC60C5E9034086ED010AB86952
S31508001BE0A0F241103B2896D2DBF800008E2898DA3E
S31508001BF08A2894DD28680A302860484596DD15212C
S31508001C002C60C8F81C104FF4AF709FED650AAC60E5
S31508001C10C5E903405F4886ED010A0068FFF726F824
S31508001C2020B1D8F81C10491CC8F81C10D8F81C009C
S31508001C30162802D017281FD02EE0AC60EC609FED66
S31508001C40580A2C6186ED010AB869C82804DD9FED9B
S31508001C50550A88ED090A67E288ED098ADBF800006B
S31508001C608B380328F7D228680A302860484591DD62
S31508001C7017202C60C8F81C00C8209FED490AAC60E4
S31508001C80C5E9034086ED010AFFF762F820B1D8F8E6
S31508001C901C10491CC8F81C10D8F81C00182808D0B5
S31508001CA019281BD01A2837D01B2852D01C287DD0BB
S31508001CB08EE04FF4AF70C5E902402C6186ED018ACB
S31508001CC0F868A0F241103B28C5D228680A30286077
S31508001CD0484593DD19212C60C8F81C10AC60EC60EF
S31508001CE031482C6186ED018A90ED010AB5EEC00AED
S31508001CF0F1EE10FA04D230EE280A80ED010A02E06D
S31508001D0028680A302860296840F6B8308142AEDD76
S31508001D101A212C60C8F81C102348AC60EC602038E7
S31508001D202C61C06800EE100A821EB8EEC00A86ED65
S31508001D30010ADBF800108A428DDA1E3088428ADDF5
S31508001D4028680A302860484591DD1B212C60C8F8B0
S31508001D501C104FF4AF70AC60C5E903401248203838
S31508001D60C06800EE100AB8EEC00A86ED010AB96925
S31508001D70A1F241113B2970D2DBF80010821C8A427D
S31508001D806BDD801E884268DA28680A302860484574
S31508001D907EDD0CE0300900200000A0420000F04281
S31508001DA000000C4300007AC50008002003E01C214F
S31508001DB02C60C8F81C104FF4AF70AC60C5E903403E
S31508001DC0FFF704F820B1D8F81C10491CC8F81C10F5
S31508001DD0D8F81C001D2802D01E2821D036E0C820BD
S31508001DE0AC60C5E90340F848C06800EE100AB8EED2
S31508001DF0C00A86ED010AB969AB393B292DD2DBF851
S31508001E000010821C8A4228DD801E884225DA28684E
S31508001E100A30286048453BDD1E212C60C8F81C1096
S31508001E20C820AC60C5E90340E74890ED030A00F511
S31508001E30B070B8EEC00A86ED010A8068FFF704F8AC
S31508001E4020B1D8F81C10491CC8F81C10D8F81C007A
S31508001E501F2803D0202826D032E08FE04FF4AF7039
S31508001E60AC60C5E90340D848806800EE100AB8EEB1
S31508001E70C00A86ED010AB969A1F241113B297DD252
S31508001E80DBF80010821C8A4278DD801E884200E05A
S31508001E9075E073DA28680A30286048456FDD202126
S31508001EA02C60C8F81C104FF4AF70AC60C5E903404D
S31508001EB0FEF78CFF20B1D8F81C10491CC8F81C1076
S31508001EC0D8F81C00212802D0222821D036E0C820C4
S31508001ED0AC60C5E90340BC48806800EE100AB8EE5D
S31508001EE0C00A86ED010AB969AB393B2946D2DBF847
S31508001EF00010821C8A4241DD801E88423EDA28682C
S31508001F000A30286048453ADD22212C60C8F81C10A2
S31508001F10C820AC60C5E90340AB4890ED020A00F55D
S31508001F20B070B8EEC00A86ED010A4068FEF78CFF6D
S31508001F3020B1D8F81C10491CC8F81C10D8F81C0089
S31508001F40232802D0242826D032E04FF4AF70AC60A4
S31508001F50C5E903409C48406800EE100AB8EEC00A7E
S31508001F6086ED010AB969A1F241113B2906D2DBF8CF
S31508001F700010821C8A4201DD801E01E07FE07FE0BE
S31508001F8088427CDA28680A302860484578DD2421AA
S31508001F902C60C8F81C104FF4AF70AC60C5E903405C
S31508001FA0FEF714FF20B1D8F81C10491CC8F81C10FD
S31508001FB0D8F81C00252802D0262821D036E0C820CB
S31508001FC0AC60C5E903408048406800EE100AB8EEE8
S31508001FD0C00A86ED010AB969AB393B294FD2DBF84D
S31508001FE00010821C8A424ADD801E884247DA286829
S31508001FF00A302860484543DD26212C60C8F81C10A5
S31508002000C820AC60C5E903406F4890ED010A00F5A9
S31508002010B070B8EEC00A86ED010A0068FEF714FF34
S3150800202020B1D8F81C10491CC8F81C10D8F81C0098
S31508002030272802D0282826D032E04FF4AF70AC60AB
S31508002040C5E903406048006800EE100AB8EEC00A09
S3150800205086ED010AB969A1F241113B2964D2DBF880
S315080020600010821C8A425FDD801E88425CDA28687E
S315080020700A302860484560DD28212C6001E053E0DD
S3150800208051E0C8F81C104FF4AF70AC60C5E90340C6
S31508002090FEF79CFE20B1D8F81C10491CC8F81C1085
S315080020A0D8F81C00292803D02A2822D037E087E050
S315080020B0C820AC60C5E903404348006800EE100A32
S315080020C0B8EEC00A86ED010AB969AB393B292BD2AD
S315080020D0DBF80010821C8A4226DD801E884223DA3D
S315080020E028680A302860484527DD2A212C60C8F868
S315080020F01C10C820AC60C5E90340334890ED000ABF
S3150800210000F5B070B8EEC00A86ED010A0068FEF761
S315080021109BFE20B1D8F81C10491CC8F81C10D8F82A
S315080021201C002B2802D008E02C6006E04FF4FA7059
S31508002130C5E90240286186ED018A2448806963283A
S315080021407EF49EAF1FEDEB0A86ED010AFEF798BFF7
S315080021501F4D2868002804DD401E44F29F112860A0
S3150800216006E01C490868002804DD401E08601A4974
S315080021701A4801601A480078082813D2DFE800F0E8
S31508002180040A3232043204041448009403681846D8
S3150800219042422CE011480094036819464A42104608
S315080021A003F03EFC0B480068002809DC2868002874
S315080021B006DC00231A4619461846009403F030FC3C
S315080021C03878042815D01BE0E007002034000020EA
S315080021D0A8030020AC03002061BEFFFFCC0300204B
S315080021E081030020CA480094036818461A46114617
S315080021F0D6E700231A4619461846009403F010FC41
S315080022003878062804D1A72142F20F7004F07EF828
S31508002210387807281BD0082841D0092878D00A28FA
S3150800222070D00B286FD00C286ED00D286DD00E28D4
S315080022306CD00F286BD0132888D1B64D2878012882
S3150800224084D104F00BFFB4482C7004707EE7B34ABF
S31508002250106860B9DAF8000040F6C413514698428F
S3150800226001DA401D0860984201DB01201060DAF8A7
S3150800227000004FF4FA735146984206DD1568012DA1
S3150800228009D1401F0860984205DC1068012802D170
S3150800229002200B601060A248DAF800109BE09F4904
S315080022A00868022805D09E4A4FF4FA70CAF800005A
S315080022B01060486860B9DAF8040040F6C41352465C
S315080022C0984201DA401D5060984201DB01204860BF
S315080022D0DAF804004FF4FA735246984206DD4D6860
S315080022E0012D09D1401F5060984205DC4868012835
S315080022F002D10220536048608948DAF80410001FAA
S3150800230069E005E036E068E09AE0CCE0EFE0FAE064
S3150800231082494868022806D0814A4FF4FA70121F8B
S31508002320CAF804001060886860B9DAF8080040F650
S31508002330C4135246984201DA401D9060984201DB68
S3150800234001208860DAF808004FF4FA73524698427A
S3150800235006DD8D68012D09D1401F9060984205DC85
S315080023608868012802D10220936088606D48DAF8EF
S31508002370081030E069498868022805D0694A4FF490
S31508002380FA70CAF808001060C86860B9DAF80C0074
S3150800239040F6C4135246984201DA401DD06098426E
S315080023A001DB0120C860DAF80C004FF4FA735246D4
S315080023B0984206DDCD68012D09D1401FD0609842AC
S315080023C005DCC868012802D10220D360C8605548D8
S315080023D0DAF80C10001F0160B8E65049C8680228F0
S315080023E006D0504A4FF4FA70121FCAF80C00106053
S315080023F0086960B9DAF8100040F6C41352469842E4
S3150800240001DA401D1061984201DB01200861DAF803
S3150800241010004FF4FA735246984206DD0D69012DF5
S3150800242009D1401F1061984205DC0869012802D1CC
S315080024300220136108613B48DAF810100838CAE729
S3150800244036490869022806D0364A4FF4FA70083A1F
S31508002450CAF810001060486960B9DAF8140040F646
S31508002460C4135246984201DA401D5061984201DB76
S3150800247001204861DAF814004FF4FA73524698427C
S3150800248006DD4D69012D09D1401F5061984205DCD2
S315080024904869012802D10220536148612149DAF8C6
S315080024A014000C3921E01D481E4944610461C460CA
S315080024B08460446004604FF4FA70CAF81400CAF8DD
S315080024C01000CAF80C00CAF80800CAF804000C394B
S315080024D0CAF800000860091D0860091D0860091D82
S315080024E008600F49091F0860091D08602EE60E4896
S315080024F06421C068B0FBF1F0C00704D00B49012085
S31508002500C1F8A00222E60948C0F8A0421EE600006B
S31508002510CC03002018040020C80300202C0B002040
S3150800252038180040400401403400002000004042B2
S31508002530FEE700001CB50121084603F035F84FF404
S315080025408070009001208DF8040000218DF8061097
S3150800255003218DF805108DF807006946014800F03B
S3150800256053FF1CBD00000240F0B589B002AC07A8B5
S31508002570CDE9000406AB05AA04A9002000F034F949
S315080025807A480499012281420ED100210846235C2B
S31508002590401C1944C0B2C9B20828F8D3082901D189
S315080025A07348027009B0F0BD00209FED721AA1F5BC
S315080025B08073813B0CD0B1F5C17FF3D16E490870A9
S315080025C06E486F4902786F48F2B39FED6F0A51E083
S315080025D06E490A706E4908706E4908706E4908702F
S315080025E06E4908706E4908706E4908709DF80900B2
S315080025F09DF8081000EB012000B200EE100A6A48A8
S31508002600F8EEC00A80EE810A80ED000A9DF80B00FC
S315080026109DF80A1000EB012000B200EE900A63480C
S31508002620F8EEE00AC0EE811AC0ED001A9DF80D001A
S315080026309DF80C1000EB012000B200EE900AF8EEAF
S31508002640E01AC1EE810A00E012E05949594C0978AE
S31508002650022908D000EE100AB8EEC00AC0EE010A38
S31508002660C4ED000A9EE707F0EDF984ED000A99E744
S315080026709FED510A514B81ED000A80ED000A9DF845
S3150800268009009DF808104E4C00EB012000B200EE40
S31508002690100A4C4D4D4AB8EEC00A4D4FDFF834C10A
S315080026A0C0EE010AC3ED000A9DF80B009DF80A105A
S315080026B000EB012000B200EE100AB8EEC00AC0EE28
S315080026C0010AC4ED000A9DF80D009DF80C1000EBF8
S315080026D0012000B200EE100A3B49B8EEC00AC0EE6F
S315080026E0010A9FED3F0AC5ED000A9DF80E0000F0AD
S315080026F001060E70C0F340111170C0F300123A7053
S31508002700C0F3C0078CF80070DFF8CCC0C0F38000B7
S3150800271011448CF80000394408183049087005D16E
S3150800272085ED000A84ED000A83ED000A2EB185EDD9
S31508002730000A84ED000A83ED000A9DF80F00294976
S31508002740802809D9C0F58070A0EB0010400000EE83
S31508002750100AB8EEC00A06E0C0EB0010400000EE12
S31508002760100AB8EE400A81ED000A1BE778563412C3
S31508002770A403002000007A44A503002001000020DD
S31508002780880300208C0300200000164493030020D1
S31508002790900300209203002091030020F8030020F4
S315080027A0F903002060030020D8030020DC03002082
S315080027B081030020E0030020000096431800002053
S315080027C01C000020200000201400002030000020FB
S315080027D031000020320000203300002015000020C0
S315080027E00000000004000020F0B5224CDDE9057564
S315080027F004EB0014D4F8B06516F004061670D4F885
S31508002800B02532D0D2080A60D4F8B01501F002011A
S315080028101970D4F8B41501F00F013970D4F8B81549
S315080028202970D4F8B815090A6970D4F8B815090CCE
S31508002830A970D4F8B815090EE970D4F8BC15297131
S31508002840D4F8BC15090A6971D4F8BC15090CA97124
S31508002850D4F8BC15090EE97148B1012804D1064817
S31508002860016841F020010160F0BD520DCBE7024836
S31508002870001FF5E7006000401064004038B50024EA
S31508002880009108232246012100F02EF8054640F65D
S31508002890FF7301E0641CA4B2284600F07BF8072801
S315080028A001D09C42F6D39C4201D3012038BD0020BA
S315080028B038BD38B50024009108232246214600F089
S315080028C013F8054640F6FF7301E0641CA4B22846D7
S315080028D000F060F8072801D09C42F6D39C4201D349
S315080028E0012038BD002038BDF0B506462748059DAD
S315080028F00468640101D5002008E00468240101D5B4
S31508002900012003E00068C0003CD50220204C0027C7
S3150800291004EB0014C4F8807599B3F600D4F88075F2
S315080029203743C4F88075D4F8806546EA8101C4F84F
S315080029308015D4F8801541EA4201C4F88015D4F808
S31508002940842503F00F0122F00F02C4F88425D4F879
S3150800295084250A43C4F884252979D5F8052041EA4F
S315080029600221C4F88C152978D5F8012041EA0221FC
S31508002970C4F88815D4F8801541F00101C4F880150B
S31508002980F0BD01E0FF20FBE77605C7E708640040D5
S3150800299000600040174928B1012810D002281BD032
S315080029A00520704708680A6800F0010002F0020274
S315080029B00243086800F0806042EA106070470868C1
S315080029C00A6800F0010002F002020243086800F0FB
S315080029D0006042EA5060704708680A6800F0010023
S315080029E002F002020243086800F0805042EA906052
S315080029F070470000086400407CB5174C00206D46FF
S31508002A00215C2954401CC0B20828F9D3294640F253
S31508002A100110FFF74EFF00202118097A2954401C9F
S31508002A20C0B20828F8D369464FF48170FFF741FF12
S31508002A3000202118097C2954401CC0B20828F8D364
S31508002A40694640F20310FFF734FF0448007800286F
S31508002A5001D000F005F87CBD826C0020A40300209C
S31508002A601CB500208DF800001A48DFED1B0A90ED12
S31508002A70000A20EE200ABDEEC00A10EE101A09124E
S31508002A808DF8011010EE101A8DF8021090ED010A5B
S31508002A9020EE200ABDEEC00A10EE101A09128DF8B3
S31508002AA0031010EE101A8DF8041090ED020A69460C
S31508002AB020EE200ABDEEC00A10EE100A00128DF8AC
S31508002AC0050010EE100A8DF8060040F20510FFF713
S31508002AD0F0FE1CBD0800002000007A4430B503460D
S31508002AE00020012908D10022094C03E0A55C6840B2
S31508002AF0521CD2B29A42F9D3002908D1044A32327A
S31508002B0003E0545C6040491CC9B29942F9D330BD10
S31508002B10826C002010B504460020012908D1002146
S31508002B20044A03E0535C5840491CC9B2A142F9D390
S31508002B3010BD0000D46C0020704700002DE9F04756
S31508002B40B0EE412A2DED0E8BB0EE0CEAB8EE0C9ADB
S31508002B50F0EE601AB0EE4E1AF0EE490A0BF0D0FC11
S31508002B60B0EE408AB0EE4E1AF0EE490AB0EE610AAF
S31508002B700BF0C6FCF0EE401AB0EE4E1AF0EE490A1B
S31508002B80B0EE420A0BF0BCFCFD4BDFF8F883FE4EB4
S31508002B901878FE4FF0EE408A9FEDFDDBDFEDFE9ADA
S31508002BA0FE4AFF4DFF4CB6EE00BA18B1012801D017
S31508002BB0062816D1FC48DFF8F4930078E8B389EDC7
S31508002BC0008AC9ED011AC9ED028A99ED008A99EDC4
S31508002BD001AAD9ED028A187880B306283BD00128C5
S31508002BE060D0C0B202287CD0032805D0042879D04A
S31508002BF00728FCD0052876D192ED000AB0EE4E1AC9
S31508002C0068EE800AB0EE480A00EECB0A00EE8B8A20
S31508002C10F0EE490A85ED020A84ED028A0BF070FC93
S31508002C2085ED020A94ED020AB0EE4E1AF0EE490A54
S31508002C300BF066FC84ED020A01E003E00BE0C6ED4A
S31508002C40029AC1E0B0EE681AF0EE610AB0EE480AE0
S31508002C5002F020FFB9E798ED000A92ED001A7AEE25
S31508002C60080A30EE010A38EE4A1AF0EE601A48EE03
S31508002C70C00A48EE801AC5ED020AB0EE602AF0EEE8
S31508002C80410A08EE801A48EEC00AB0EE420AC4EDC0
S31508002C90020AC6ED021A87ED021AB0EE4E1AF0EED7
S31508002CA0490AB7E1DFF80883F0EE4A0A98ED000A08
S31508002CB040EE280A20EE280A10EE100AC5ED020A90
S31508002CC00DF07CFD6AEE0BEA41EC1C0B1EEE900A39
S31508002CD00DF074FD41EC1B0B18EE100A0DF06EFD9D
S31508002CE002E077E03BE171E041EC1A0BB0EE4D0AE9
S31508002CF0F0EE6D0A07F008FF9FEDAE1B51EC100BC6
S31508002D0053EC112B0DF064FA53EC1A2B0DF060FA04
S31508002D1053EC1B2B0DF068FC53EC1C2B0CF0AEFF90
S31508002D200CF07AFFA06098ED000A20EE280A10EE53
S31508002D30100A0DF043FD41EC1A0B1EEE900A0DF039
S31508002D403DFD41EC1B0B18EE100A0DF037FD41EC6A
S31508002D50180BB0EE4D0AF0EE6D0A07F0D5FE9FEDA2
S31508002D60971B51EC100B53EC112B0DF031FA53EC69
S31508002D70182B0DF02DFA53EC1B2B0DF035FC53ECEC
S31508002D801A2B0CF07BFF0CF047FFB06095ED020A9A
S31508002D90B0EE4E1AF0EE490A0BF0B2FB85ED020AC8
S31508002DA094ED020AB0EE4E1AF0EE490A0BF0A8FBB3
S31508002DB084ED020A96ED020AB0EE4E1AF0EE490AC2
S31508002DC00BF09EFB86ED020AC7ED029ABDEC0E8B50
S31508002DD0BDE8F087DFED7BBA92ED000A914620EE5A
S31508002DE00B0A10EE100A0DF0E9FC41EC1A0B18EE6E
S31508002DF0900A0DF0E3FC41EC100B07F0C5FEB0EEAF
S31508002E0040CAF0EE60CAD8F800000DF0D7FC53ECC3
S31508002E101C2B0CF0EFFF53EC1A2B0DF0E5FB0CF016
S31508002E20FBFE02EE100A9FED681ADFED680AB0EEA7
S31508002E30680A0BF065FBB5EEC00AF0EE408AF1EEC3
S31508002E4010FA16D099ED000AF0EE420A40EE4B0A47
S31508002E5060EE880A80EE821AF0EE420A40EE0B0A0D
S31508002E6020EE880AC0EE020A85ED021AC4ED020AAF
S31508002E7003E085ED028A84ED028A9FED550A28EE65
S31508002E80800A10EE100A0DF099FC41EC1C0B18EEA6
S31508002E90900A0DF093FC41EC100B9FED4E1B07F0CA
S31508002EA00BF89FED4E1B51EC100B53EC112B0DF04C
S31508002EB08FF941EC1A0B18EE900A0DF07FFC41ECE5
S31508002EC0100BB0EE4D1AF0EE6D1A06F0F5FF9FEDF9
S31508002ED0451B51EC100B53EC112B0DF079F953EC03
S31508002EE01A2B0CF0CBFE53EC1C2B0DF07DFB9FED43
S31508002EF03F1B53EC112B0CF0C1FE0CF08DFE00EEBF
S31508002F00100ADFED3C0A3D4BB0EE4E1A70EE600A31
S31508002F109FED390A00EEAB0AF0EE490ABDEEC00A8B
S31508002F2083ED000A95ED020A0BF0EAFA85ED020A2E
S31508002F3094ED020AB0EE4E1AF0EE490A0BF0E0FAEA
S31508002F4084ED020AC6ED029AC7ED029A40F6980287
S31508002F504FF4487118680BF0E3FA186036E792EDFB
S31508002F60000AD8ED000A30EE200A60EE280AB0EE14
S31508002F70480A00EECB0A85ED020A84ED020A3FE014
S31508002F8081030020F0030020780B00208C0B002022
S31508002F90000000000000084000000000EC030020CC
S31508002FA0500B0020640B002001000020440B002079
S31508002FB0F4030020000000000000E0BF000000004D
S31508002FC00000E03FD7231F440AD7A33E48E1FABED4
S31508002FD0E5D0E23F000000000000004000000000CD
S31508002FE0D34DF43F000000809318E4BF00000000B2
S31508002FF0022BF93F4C37C93F0080BB44D40300205D
S3150800300000EE8B8AB0EE4E1AF0EE490A86ED028A79
S3150800301087ED028A0BF074FA85ED020A94ED020A2E
S31508003020B0EE4E1AF0EE490A0BF06AFA84ED020A7F
S3150800303096ED020AB0EE4E1AF0EE490A0BF060FA67
S3150800304086ED020A97ED020AB0EE4E1AF0EE490A2C
S315080030500BF056FA87ED020AB8E600001CB5012106
S31508003060082002F0A1FA0820009000208DF804003C
S3150800307003208DF8050001208DF8070069460248EF
S3150800308000F0C2F91CBD0000000C0240F0B5012199
S3150800309089B0084602F0A0FA0121032002F084FA5A
S315080030A003258DF8055002264FF400408DF804607C
S315080030B001242B4F00908DF806408DF8074069468D
S315080030C0384600F0A1F98DF805508DF804608DF8A2
S315080030D006408DF807400820224C00906946204695
S315080030E000F092F901220F21384600F0C9F90122B1
S315080030F00321204600F0C4F902A803F02DFC0024A1
S315080031004FF6FF70ADF8084003907507ADF810400C
S31508003110ADF80A4002A9284603F0E0FB00231A4648
S315080031200321284603F0FBF905A803F07BFAADF85E
S315080031301C4005A9284603F01FFA0121284603F07A
S31508003140D3F901221146284603F074FA00212846CD
S3150800315003F09AFB0121284603F0CCF909B0F0BD2B
S31508003160000002400004024030B589B00121022067
S3150800317002F032FA0121022002F016FA30200390FA
S3150800318003208DF8110002208DF8100001208DF81B
S315080031901200224C8DF8130003A9204600F034F9DA
S315080031A002220421204600F06BF90222052120465E
S315080031B000F066F9684603F0CFFB00244FF6FF706F
S315080031C0174DADF800400190ADF80840ADF8024043
S315080031D06946284603F082FB00231A46032128463F
S315080031E003F09DF905A803F01DFAADF81C4005A9E2
S315080031F0284603F0C1F90121284603F075F9012292
S315080032001146284603F016FA0021284603F03CFB2F
S315080032100121284603F06EF909B030BD00040240CA
S315080032200004004030B589B00121042002F0D4F929
S315080032300121022002F0B8F9C020039003208DF87E
S31508003240110002208DF8100001208DF81200224C82
S315080032508DF8130003A9204600F0D6F802220621AD
S31508003260204600F00DF902220721204600F008F951
S31508003270684603F071FB00244FF6FF70174DADF852
S3150800328000400190ADF80840ADF80240694628466E
S3150800329003F024FB00231A460321284603F03FF9CE
S315080032A005A803F0BFF9ADF81C4005A9284603F0A8
S315080032B063F90121284603F017F901221146284629
S315080032C003F0B8F90021284603F0DEFA0121284662
S315080032D003F010F909B030BD0004024000080040B0
S315080032E030B589B00121082002F076F90121084697
S315080032F002F05AF9274C02220021204600F0C0F8B5
S3150800330002220121204600F0BBF802218DF8111097
S315080033108DF81010012103208DF8121003908DF8F6
S31508003320131003A9204600F06FF8684603F014FB53
S3150800333000244FF6FF70184DADF800400190ADF827
S315080033400840ADF802406946284603F0C7FA00234C
S315080033501A460321284603F0E2F805A803F062F9A5
S31508003360ADF81C4005A9284603F006F901212846B0
S3150800337003F0BAF801221146284603F05BF900214A
S31508003380284603F081FA0121284603F0B3F809B06C
S3150800339030BD000000000240000C0040B5EEC00A37
S315080033A00E48F1EE10FA04D2B1EE400A4FF0FF31A2
S315080033B000E00121FDEEC00A8160C0ED000AF8EECA
S315080033C0E00A30EE600ADFED060A20EE200ABDEEBE
S315080033D0C00A80ED010A0148704700002C680020E9
S315080033E000007A441CB505A0D0E90010CDE900100C
S315080033F069460448FFF742FA1CBD000001010101B5
S315080034000101010178563412F0B5002201274FF068
S31508003410030C0B6807FA02F52B40AB422CD1066861
S3150800342053000CFA03F4A64306600E79D0F800E0C0
S315080034309E4046EA0E0606600E79012E01D0022E3F
S3150800344012D18668A64386604E79D0F808E09E4079
S3150800345046EA0E0686604668AE43466045688E793B
S315080034609640B6B235434560C568A543C560CC7974
S315080034709C40C3681C43C460521C102AC9D3F0BDC3
S315080034804B07DB0E9A40C90810B500EB8100016AAC
S315080034900F249C40A1430162016A1143016210BDD9
S315080034A0018370470AB10183704741837047000062
S315080034B010B50A4C0146072301222046FDF78AFA71
S315080034C02046FDF7C1FA02212046FDF756FA0028E4
S315080034D0F9D02046BDE81040FDF74CBA002001405F
S315080034E010B50A4C0146072301222046FDF772FA59
S315080034F02046FDF7A9FA02212046FDF73EFA0028E4
S31508003500F9D02046BDE81040FDF734BA0021014045
S31508003510F0B466486749027865480D7806786648C3
S3150800352004789FED661A664BDFED662ADFED661AAC
S31508003530664F9FED672A674897ED000A6649F1EEE0
S31508003540400A62B1012A0AD0062A08D0092C66D296
S31508003550DFE804F0654346494E5156596200092C86
S3150800356024D2DFE804F02305080B1013181B2000EB
S3150800357080ED000A0CE080ED000A01E080ED001AFB
S31508003580C3ED000A53E0C0ED000AF9E7C0ED000AF2
S3150800359083ED001A4BE0C0ED000A01E080ED001A49
S315080035A083ED000A43E080ED000AF9E780ED001A92
S315080035B083ED001A012E04D0012D07D081ED001AE3
S315080035C035E0C0EE220A60EE820A03E0C0EE220A67
S315080035D060EEA10AC1ED000A29E080ED000A0CE0C0
S315080035E080ED000A01E080ED001AC1ED001A0EE038
S315080035F0C0ED000AF9E7C0ED000A81ED001A06E001
S31508003600C0ED000A01E080ED001A81ED002A012EC6
S3150800361008D0012D09D00AE080ED000AF5E780ED13
S31508003620001AEAE781ED002A01E0C1ED001A022A34
S3150800363008D0032A13D0052A11D0042A0FD0072A46
S315080036400DD01FE091ED000AF0EE000A20EE200AE8
S31508003650F2EE020A80EE201A81ED001A12E0D0ED91
S31508003660000AF5EEC00AF1EE10FAD1ED000A03D20F
S31508003670F1EE600AC1ED000A20EE800AC0EE220AC9
S31508003680C1ED000AD0ED000A9FED141A80EE810AFA
S3150800369080ED000AD3ED001AC1EE810AC3ED000AD7
S315080036A091ED001AF0BCFFF749BA0000810300202B
S315080036B0FA030020FB03002094030020000000000A
S315080036C0DC0300200000FA43DB0FC9BF8403002097
S315080036D0DB0FC93FD8030020E003002000007A442E
S315080036E010B502202DED048B01F0F0FF394C206057
S315080036F0032001F0EBFF6060042001F0E7FFA06003
S31508003700052001F0E3FF3449E060097808291ED254
S31508003710DFE801F0044C0B0B040B040494ED000ADB
S31508003720F8EEC09A94ED010A4AE094ED000A616841
S31508003730F8EEC09A494200EE101AB8EEC09A94ED17
S31508003740020AF8EEC08A00EE100AB8EEC08A9FEDAB
S31508003750231A234869EE810A90ED000A214860EE93
S31508003760801AD0ED000A204881EEA02A69EE011AD7
S3150800377061EE801A80ED002A81EEA02A68EE811A91
S315080037801A4828EE011A61EE801A21EE000A80EE28
S31508003790201A80ED002A164881EEA02A80ED002A1C
S315080037A0144880ED001ABDEC048B10BD216849420F
S315080037B000EE101A6168F8EEC09A494200EE101A37
S315080037C0A168B8EEC09A494200EE101A4042F8EED7
S315080037D0C08AB8E750090020810300200000C842CB
S315080037E0E8030020E4030020500B0020640B0020AF
S315080037F0780B00208C0B00202DE9F04100250E46A1
S3150800380007462C4608E03846FFF752FE05440520D1
S3150800381008F0FAF8641CE4B2B442F4D3B5FBF6F047
S3150800382080B2BDE8F081000010B50820FFF758FE09
S315080038300CF07EFC9FED0E1B53EC112B0CF0C8FC14
S315080038409FED0D1B53EC112B0CF0C2FC9FED0C1BCE
S3150800385053EC112B0CF0BCFC9FED0B1B53EC112BFE
S315080038600CF0B6FC0CF0D8F900EE100A10BD0000FA
S315080038706666666666660A40000000000000264026
S315080038800000008014AEEF3F000000000000303F4B
S315080038904069806880B27047D0F8CC000068C0F3F1
S315080038A041407047084490F89F03704710B50022BE
S315080038B004461346C0F8102304EB8200C0F81833F8
S315080038C0C0F85433A01880F89033521CD2B20F2A8D
S315080038D0F2D30820A4F8B603204604F099FF204640
S315080038E004F08EFD204604F0CCFC0121204604F0AD
S315080038F0EFFF204604F005FD204604F0A7FD002052
S3150800390010BDD0F810037047D0F81403704710B5EF
S3150800391004F069FF002010BD0022431883F89F2396
S3150800392000EB4113C3F8C42304F0ACBEFEE7000065
S3150800393070B50D4C0025C4F8A8520C48016821F44E
S3150800394040010160016841F480010160C4F8AC528D
S31508003950012004F52A7408F073F80120206008F0A5
S315080039606FF8256070BD00000080404200040240E8
S315080039701CB50121022001F017FE4FF44060012416
S3150800398000908DF8044000208DF8060003208DF87D
S3150800399005008DF8074069460448FFF735FD0448D9
S315080039A0C0F8A842C0F8AC421CBD000000040240A2
S315080039B00080404270B50D4C0026C4F8A8620C4839
S315080039C0016821F440010160016841F48001016049
S315080039D00125C4F8AC52284604F52A7408F030F8D4
S315080039E02560012008F02CF8266070BD0080404252
S315080039F0000402402DE9F047814618480025016871
S31508003A0021F44001016001680160154E2C462F46DD
S31508003A104FF00108C6F8A872012008F011F8C6F898
S31508003A20A8826806D6F82C12000E11B140F00105DE
S31508003A3001E020F00105012008F002F8641CE4B258
S31508003A40082CE7D3B9F1000F04D0FFF7B3FF2846D7
S31508003A50BDE8F087FFF76CFFF9E7000000040240B5
S31508003A600080404270B50D46044600F01BF820461B
S31508003A7000F0B0F800F05EF8284600F0ABF800F069
S31508003A8059F800F00FF844F0010000F0A3F800F030
S31508003A9051F80120FFF7AEFF044600F02BF8204648
S31508003AA070BD000070B51148016821F4400101603D
S31508003AB0016841F4800101600D4C0120C4F8AC0294
S31508003AC0D4F82C1200290FD0C4F8A80207F0B8FFC2
S31508003AD00025C4F8AC52D4F82C02002804D10120E1
S31508003AE007F0AEFFC4F8A85270BD000000040240FB
S31508003AF0008040420D4810B5016821F4400101607C
S31508003B00016841F480010160094C0020C4F8A8024C
S31508003B10C4F8AC02012004F52A7407F091FF0120CD
S31508003B2020606060BDE8104007F08ABF00040240CC
S31508003B300080404270B512480024016821F4400113
S31508003B400160016801600F4D0126C5F8AC62304678
S31508003B5007F076FFC5F8A86207E0641CE4B2322CC9
S31508003B6003D9FFF7C7FF002070BD012007F068FFE3
S31508003B70D5F82C020028F0D1C5F8A802012070BD9E
S31508003B8000040240008040422DE9F0411D461446DB
S31508003B900F468046069EFFF765FF621CFF21C4F1AB
S31508003BA0080301FA02F22B445B1ED9400A43C5F109
S31508003BB008018E40D2B2F1B2C4F10703D9401040D1
S31508003BC040EA01023946404600F034F80120BDE8D3
S31508003BD0F08100002DE9F04105461448016821F4FA
S31508003BE040010160016841F480010160104E002720
S31508003BF0C6F8A8723C464FF00108E809C6F8AC02B8
S31508003C006806050E012007F01BFFC6F8A8820120EA
S31508003C1007F016FFC6F8A872012007F011FF641C0A
S31508003C20E4B2082CE9D3BDE8F081000000040240A4
S31508003C300080404270B515460E460446FFF732FF2F
S31508003C402046FFF7C7FFFFF775FF3046FFF7C2FFAD
S31508003C50FFF770FF2846FFF7BDFFFFF76BFFFFF77B
S31508003C6049FF012070BD00000F4820B5811C021DC8
S31508003C7008F016F80D484068B0F57A7F12DB0A4955
S31508003C801E39CA8B8A810B8CCB81488C08820D8899
S31508003C90521BCA834A889A1A0A848A88801A00F5A7
S31508003CA080404884204620BD7E090020D41100208B
S31508003CB0164820B5811C021D08F062F81448154AFA
S31508003CC0154943680120B3F57A7F02DA0860107057
S31508003CD019E0124B5D6815B90025157058604FF448
S31508003CE096700860094918390A8B4A824B8B8B8271
S31508003CF0888BC882CD88521B0A830A899A1A4A83F6
S31508003D004A89801A8883204620BD00007809002049
S31508003D10D411002080030020B0040020A004002055
S31508003D200021D020FFF79EBE08B507F0C3FE0F4F4F
S31508003D300D4C4FF47A7507F1180807F11E06009026
S31508003D400A2168460AF038FF6068A84207DA414641
S31508003D50B81D00F00DF83146044800F009F8FFF7E1
S31508003D6083FFFFF7A5FFEBE7D411002060090020C9
S31508003D700A8802804A8842808988818070470000C4
S31508003D8030B50446F348F34D01220078F249AD1CDC
S31508003D90012806D002287DD003287CD00020087090
S31508003DA030BD0A70E0782870207968706078A8704D
S31508003DB0A078E870A0790022C0F30011281D0AF047
S31508003DC0BDF8A0790122C0F38011281D0AF0B6F8C3
S31508003DD0A0790222C109281D0AF0B0F8A0790322A9
S31508003DE0C0F34011281D0AF0A9F8607900F00F0009
S31508003DF00F280CD0C107C0F341001AD0002863D0A1
S31508003E00012863D0022867D0032825D166E004225A
S31508003E100021281D0AF092F805220021281D0AF023
S31508003E208DF806220021281D0AF088F807220021AD
S31508003E300FE030B1012806D0022806D003280BD19E
S31508003E4005E0042204E0052202E0062200E007223B
S31508003E500121281D0AF072F8A0790822C0F3800112
S31508003E60281D0AF06BF8A0790922C0F3C001281DA5
S31508003E700AF064F8A0790A2200F00101281D0AF068
S31508003E805DF8A0790B22C0F34001281D0AF056F808
S31508003E90607901E028E0B9E0C0F300110C22281D82
S31508003EA00AF04CF860790D22C0F34011281D0AF07B
S31508003EB045F860790E22C0F38011281D0AF03EF8F5
S31508003EC06079C1090F2235E1042200E006220121AA
S31508003ED0281D0AF033F8B6E7062200E0042201217D
S31508003EE0281D0AF02BF8B2E70A70A179802011B9CB
S31508003EF0E17901B9A071A1792970217A11B9617A9C
S31508003F0001B92072217AC1F1FF016970A17A11B94C
S31508003F10E17A01B9A072A17AA970217B01B920734F
S31508003F20207B0422C0F1FF00E870A07800F00101B0
S31508003F30281D0AF003F8A0780522C0F3C001281D41
S31508003F4009F0FCFFA0780622C0F34001281D09F0FD
S31508003F50F5FFA0780722C0F38001281D09F0EEFFBF
S31508003F60A0780022C0F34011281D09F0E7FFA078C9
S31508003F700322C0F30011281D09F0E0FFA0780122F2
S31508003F80C0F38011281D09F0D9FFA0780222C109C3
S31508003F90281D09F0D3FFE0780A2200F00101281D48
S31508003FA009F0CCFFE0780B22C0F34001281D09F088
S31508003FB0C5FF2079FF2825D000210822281D09F0F1
S31508003FC0BDFF6079FF281FD000210922281D09F0AE
S31508003FD0B5FFE0780E22C0F30011281D09F0AEFFE8
S31508003FE0E0780D22C0F34011281D09F0A7FFE078FC
S31508003FF00F22C0F38011281D09F0A0FFE078C1093F
S315080040000C2297E00121D8E70121DEE70A70E07863
S315080040102870207968706079A870A079E87060784F
S31508004020002200F00101281D09F088FF60780322AC
S31508004030C0F34001281D09F081FF60780122C0F312
S315080040408001281D09F07AFF60780222C0F3C001BA
S31508004050281D09F073FF20780A22C0F30011281DD5
S3150800406009F06CFF20780B22C0F34011281D09F0D7
S3150800407065FF20780822C0F38011281D09F05EFF2D
S3150800408020780922C109281D09F058FF20780C223A
S3150800409000F00101281D09F051FF20780D22C0F318
S315080040A04001281D09F04AFF20780E22C0F380013E
S315080040B0281D09F043FF20780F22C0F3C001281DF0
S315080040C009F03CFFA07800F00F000F2811D0C107B7
S315080040D0C0F341001FD090B3012832D0022836D051
S315080040E003287FF45DAE04220121281D09F026FF6E
S315080040F018E004220021281D09F020FF05220021CE
S31508004100281D09F01BFF06220021281D09F016FFAD
S31508004110072200210EE038B1012807D0022807D06F
S315080041200328DED1072204E0042202E0052200E08B
S3150800413006220121281DBDE8304009F0FFBE0422F1
S3150800414000E006220121281D09F0F8FEEEE7062206
S31508004150CAE70000F2040020780500200149002083
S3150800416088807047F40400201CB50121102001F056
S315080041701BFA00218DF80410032101208DF8051083
S3150800418000908DF8070069460148FFF73DF91CBD08
S315080041900010024000EE100AB7EE001A70B5F8EEED
S315080041A0400A3948394D002281EE200ADFED350AEA
S315080041B0037A20EE200A4BB1C271C282028342837F
S315080041C08283D5F80032012B00D10272D5F800326D
S315080041D0012463B9037A53B9C471438B5B1C9BB240
S315080041E043838B4203D94283038B5B1C0383DFED36
S315080041F0280A068B80EE801AFCEEC10A10EE903A69
S315080042009BB2B34202D20472032070BDC379B3B322
S31508004210D5F80032012B09D1838B5B1C9BB28383B3
S315080042208B4203D98283C18A491CC182DFED190AF0
S3150800423080EE801AFCEEC10A10EE901ADFED160A1F
S315080042408AB2C18A8A420ED280EE801ABCEEC11AA0
S3150800425011EE102A92B28A4205D9D5F8001271B920
S315080042600472022070BD80EE801ABCEEC10A10EE00
S31508004270102A92B28A4203D20472012070BDFFE767
S315080042800020FBE700007A4458050020000042425F
S3150800429000001644000048420000FA432DE9F047A2
S315080042A000216420FFF776FF394D00212A68AAB35A
S315080042B0012A64D1374EDFF8E090DFF8E0C0384ACB
S315080042C0DFF8E080DFF8E0A0384C4FF496774FF43B
S315080042D0FA73012855D0022851D12960C6F8A012D0
S315080042E02170C9F80070CCF8003053611361D360AF
S315080042F0936053601360C8F81410C8F81010C8F813
S315080043000C10C8F80810C8F80410C8F80010504671
S31508004310BDE8F04701221E2102F08CB9244D05F1B3
S3150800432018039C1D012805D0224A9288D60509D56E
S31508004330960507D52049087810B10020087007E0CF
S315080043400120FBE7022803D096070BD5520709D5AB
S315080043501946A81DFFF70CFD2146BDE8F04714488D
S31508004360FFF706BD03280AD1144A01201070144A23
S315080043701078401CC0B21070012800D91170BDE831
S31508004380F0872078401CC0B220701528A5D0F6E723
S315080043909803002000004042A8030020AC03002038
S315080043A0B00300202C0B002000040140A6030020C7
S315080043B060090020F4040020010000206A030020A0
S315080043C06403002000EE900A41421E4AB8EEE01A45
S315080043D000EE901A00B592ED010AF8EEE00A0AF02E
S315080043E08FF800EE900A82ED010A174AB8EEE01A35
S315080043F000EE901A92ED010AF8EEE00A0AF080F84B
S3150800440000EE900A82ED010A104AB8EEE01A00EEB4
S31508004410901A92ED010AF8EEE00A0AF071F800EE39
S31508004420900A82ED010A0A4AB8EEE01A00EE901ADE
S3150800443092ED010AF8EEE00A0AF062F882ED010A46
S3150800444000BD0000500B0020640B0020780B0020F4
S315080044508C0B002070B53C21D020FFF703FB0446E7
S315080044603B21D020FFF7FEFA04EB00201F4C3E212B
S31508004470E083D020FFF7F6FA05463D21D020FFF766
S31508004480F1FA05EB002020844021D020FFF7EAFA54
S3150800449005463F21D020FFF7E5FA05EB0020144931
S315080044A000B260844A680121124B134EB2F57A7F36
S315080044B002DA3160197070BD104A156815B9002501
S315080044C01D7011604FF496713160E18BA181228CC9
S315080044D0E28120822388C91AE1836188511A2184DE
S315080044E0A188401A00F58040608470BD60090020EC
S315080044F0D411002080030020B0040020B804002056
S3150800450070B54421D020FFF7ADFA04464321D020E8
S31508004510FFF7A8FA04EB0020174C46212083D02089
S31508004520FFF7A0FA05464521D020FFF79BFA05EBD1
S31508004530002060834821D020FFF794FA05464721DA
S31508004540D020FFF78FFA05EB00200C4900B2A083B4
S315080045504968B1F57A7F0DDB218B6182628BA28275
S31508004560E082E388C91A21832189511A6183618906
S31508004570401AA08370BD000060090020D4110020F5
S31508004580BC2801D3012210E0622801D302220CE0E4
S315080045902A2801D3032208E0142801D3042204E0C0
S315080045A00A2801D3052200E006221A21D020FFF7A7
S315080045B041BB10B504464FF47A70844201D90446CB
S315080045C002E0042C00D20424B0FBF4F0401EC2B270
S315080045D01921D020FFF72EFB6008BDE81040FFF731
S315080045E0CFBF7521D020FFF73DBA10B580226B21C9
S315080045F0D020FFF71FFBC82007F006FA00226B2120
S31508004600D020FFF717FB012000F03AF8002000F051
S315080046102EF83220FFF7CDFF00223821D020FFF7F1
S3150800462009FB00226A21D020FFF704FB0022232180
S31508004630D020FFF7FFFA80223721D020FFF7FAFAB9
S315080046407521D020FFF70EFA682801D0012010BD89
S3150800465001226B21D020FFF7EDFA00226C21D02031
S31508004660FFF7E8FA3220FFF7A4FF002010BD08B5CF
S315080046700223009004221C21D020FFF785FA08BDEA
S3150800468008B50223009004221B21D020FFF77CFAEC
S3150800469008BD000008B507F00DFA0F4F0D4C4FF492
S315080046A07A7507F1180807F11E0600900A21684670
S315080046B00AF082FA6068A84207DA4146B81DFFF791
S315080046C057FB31460448FFF753FBFFF7C3FEFFF7D6
S315080046D017FFEBE7D411002060090020FEE77047BA
S315080046E030B50F23C27801780125FAB1144A126849
S315080046F001F1E02102F4E062C2F5E062C2F30722AA
S31508004700C2F10404D3404278A24084781C40144382
S31508004710220181F80024007800F01F018D4040092D
S31508004720800000F1E020C0F8005130BD01F01F0004
S3150800473085404809800000F1E020C0F8805130BD6E
S315080047400CED00E002490843024908607047000082
S315080047500000FA050CED00E010B40021084B0A46EB
S31508004760002003EBC004401CC0B262548028F8D372
S31508004770491CC9B20829F3D310BC00F0F1B80000EF
S31508004780386800202DE9F0471F4690460E468246B7
S315080047900025DDF8209011E03146504600F028F952
S315080047A0544607E019F8050001216D1C00F0BAFA15
S315080047B0641CE4B24445F5D3761CF6B2BE42EBD38C
S315080047C0BDE8F08710B57F2816D83F2914D80723E7
S315080047D0A3EBD10301F00701C1F107040121A140B0
S315080047E0064CDBB204EBC000002AC25CC9B201D099
S315080047F00A4300E08A43C25410BD0000386800200E
S31508004800F0B516460D4607460024FFF7DBFF32468D
S3150800481029463846FFF7D6FF2819C1B23246384628
S31508004820FFF7D0FF641CE4B2082CF5D3F0BD0000F6
S315080048307CB50121082000F0B7FE01268DF804603A
S3150800484000244FF4F0408DF8064000908DF805409E
S315080048508DF8074069464048FEF7D6FD012108074E
S3150800486000F0BAFE012000F099FE002000F020FFBB
S31508004870002000F093FE394DC5F8B042642005F5D6
S315080048802C7507F0C1F82E600021AE2000F04AFA18
S315080048900021D52000F046FA0021502000F042FA07
S315080048A00021A82000F03EFA00213F2000F03AFA45
S315080048B00021D32000F036FA0021084600F032FA2B
S315080048C00021402000F02EFA00218D2000F02AFA5F
S315080048D00021142000F026FA0021202000F022FAF8
S315080048E00021022000F01EFA0021A12000F01AFA89
S315080048F00021C02000F016FA0021DA2000F012FA92
S315080049000021122000F00EFA0021812000F00AFA98
S315080049100021EF2000F006FA0021D92000F002FA63
S315080049200021F12000F0FEF90021DB2000F0FAF961
S315080049300021302000F0F6F90021A42000F0F2F959
S315080049400021A62000F0EEF90021AF2000F0EAF9D8
S31508004950FFF702FF7CBD0000000C024000804142C8
S3150800496070B5104E002505F1B000C0B2002100F068
S31508004970D9F90021084600F0D5F90021102000F0E9
S31508004980D1F9002406EBC4000121405D00F0CAF904
S31508004990641CE4B2802CF5D36D1CEDB2082DE2D36D
S315080049A070BD00003868002070B5104E002505F16E
S315080049B0B000C0B2002100F0B5F90021084600F0A9
S315080049C0B1F90021102000F0ADF9002406EBC4006F
S315080049D00121405D00F0A6F9641CE4B2802CF5D3F1
S315080049E06D1CEDB2022DE2D370BD000038680020C0
S315080049F010B50446B031C8B2002100F093F9102072
S31508004A0040EA1410002100F08DF904F00F00BDE80B
S31508004A101040002100F086B970B515460E460446CA
S31508004A200CE02A463146204600F0A8F81034E4B2D5
S31508004A30702C02D900241036F6B2AD1C287800284E
S31508004A40EFD170BD70B515460E4604460CE02A46F1
S31508004A503146204600F04EF80C34E4B2742C02D9E4
S31508004A6000240C36F6B2AD1C28780028EFD170BDAC
S31508004A702DE9F04F203A98460D468346894602F0BE
S31508004A80FF0A00262EE0B8F10C0F08D0174901EBF3
S31508004A900A100027845D200607D5099A08E01449FC
S31508004AA00AEB4A0001EB8000F3E7099890B100226F
S31508004AB029465846FFF786FE6D1C6006EDB2040EC1
S31508004AC0A5EB0901414507D10BF101004D4600F060
S31508004AD0FF0B05E00122EBE77F1CFFB2082FDAD3B4
S31508004AE0761CF6B24645CED3BDE8F08F160E010801
S31508004AF0A20901082DE9F74F172514781E4B8B4696
S31508004B00002000EB800101EBC00113F81160A642FA
S31508004B102DD103EB4109567899F80110B14226D1F7
S31508004B2000254FF0800A09EB0500009990F80280ED
S31508004B3005F0010000240BEB550701EBC0062AFA25
S31508004B4004F010EA080F06EB0400F9B2C0B201D06F
S31508004B50012200E00022FFF735FE641CE4B2082CAF
S31508004B60EDD36D1CEDB2182DDDD3BDE8FE8F401CCC
S31508004B70C0B2A842C5D3F8E7702101082DE9F74F5E
S31508004B80652514781D4B8B46002000EB001113F8A1
S31508004B901160A6422DD103EB4109567899F8011008
S31508004BA0B14226D100254FF0800A09EB050000998D
S31508004BB090F8028005F0010000240BEB550701EB85
S31508004BC0C0062AFA04F010EA080F06EB0400F9B248
S31508004BD0C0B201D0012200E00022FFF7F3FD641CF9
S31508004BE0E4B2082CEDD36D1CEDB2202DDDD3BDE863
S31508004BF0FE8F401CC0B2A842C7D3F8E706140108C6
S31508004C002DE9FF4F81B00027DDF838B01D469246E2
S31508004C1080463C464FF001094FEA5B0627E0281B11
S31508004C20401EC1B20A2007F05DFABAFBF0F00A216D
S31508004C30B0FBF1F201FB120027B9691E8C4201DABA
S31508004C4048B101273030C2B206FB0480C0B25B46C9
S31508004C50CDF8009006E006FB0480C0B25B46202231
S31508004C60CDF800900299FFF703FF641CE4B2AC424A
S31508004C70D5D305B0BDE8F08FF8B516460D460446FF
S31508004C80012714E07A2C02D900241035EDB23A2D0A
S31508004C9003D900242546FFF75FFD009732780C23D9
S31508004CA029462046FFF7E4FE0834E4B2761C30783D
S31508004CB00028E7D1F8BDF8B516460D460446012783
S31508004CC014E07A2C02D900241035EDB23A2D03D916
S31508004CD000242546FFF740FD009732781023294621
S31508004CE02046FFF7C5FE0834E4B2761C3078002863
S31508004CF0E7D1F8BD30B50A4D00242868C11700EB86
S31508004D001170B4EB201F01DA012200E00022002115
S31508004D102046FFF775FD641CE4B2802CEDD330BD48
S31508004D201404002030B500230E4A012411B1C2F83C
S31508004D30AC4201E0C2F8AC320021C2F8B83205062E
S31508004D4002D5C2F8B44201E0C2F8B432C2F8B84299
S31508004D504006491C000EC9B20829EED3C2F8AC4277
S31508004D6030BD0000008041420B4810B50188491C3F
S31508004D700180018840F6B832914207D900210180A6
S31508004D8003F034FA05490320087010BDBDE8104049
S31508004D90034802F090BF0000EA040020A00B0020A0
S31508004DA0240C002036493548096890ED010A00EEC2
S31508004DB0901AB5EEC00AF8EEE00A70EE600AF1EE57
S31508004DC010FAC0ED050A03D19FED2E0A80ED050AFB
S31508004DD02A4AB1F5C87FD2ED061A01DC012901DAA3
S31508004DE0C0ED051A90ED050AD0ED080AB4EEE00A02
S31508004DF0F1EE10FA08DCF1EE600AB4EEE00AF1EE24
S31508004E0010FA01D3F0EE400A10EE901A1E4AC0EDD1
S31508004E10050A91420ADA10EE901A1C4A914205D206
S31508004E2090ED070A30EE200A80ED070A90ED070A92
S31508004E3090ED091AB4EEC10AF1EE10FA08DCB1EEEB
S31508004E40411AB4EEC10AF1EE10FA01D3B0EE401AD7
S31508004E5080ED071A90ED020A70EEE11A90ED032A2A
S31508004E6020EE200A02EE210AD0ED041A01EE810A8C
S31508004E7080ED0A0AC0ED060A70470000F008002017
S31508004E80000600200000000000002041000020C1AC
S31508004E9030EEC01AF5EEC00A3148F1EE10FA80ED90
S31508004EA0051A03D1DFED2F0AC0ED050A2C4B10EECB
S31508004EB0101A2D4AD3ED061A914204DC10EE101A88
S31508004EC02A4A914201DAC0ED051A90ED050AD0ED9D
S31508004ED0080AB4EEE00AF1EE10FA08DCF1EE600A10
S31508004EE0B4EEE00AF1EE10FA01D3F0EE400A10EE45
S31508004EF0901A1F4AC0ED050A91420ADA10EE901A76
S31508004F001C4A914205D290ED070A30EE200A80ED40
S31508004F10070A90ED070A90ED091AB4EEC10AF1EEF8
S31508004F2010FA08DCB1EE411AB4EEC10AF1EE10FA35
S31508004F3001D3B0EE401A80ED071A90ED020A70EE22
S31508004F40E11A90ED032A20EE200A02EE210AD0ED9E
S31508004F50041A01EE810A80ED0A0AC0ED060A7047B6
S31508004F60300800200000000000C05A45000020411B
S31508004F7000004842000048C230EEC01AF5EEC00AEA
S31508004F803148F1EE10FA80ED051A03D1DFED2F0A4C
S31508004F90C0ED050A2C4B10EE101A2D4AD3ED061A51
S31508004FA0914204DC10EE101A2A4A914201DAC0ED49
S31508004FB0051A90ED050AD0ED080AB4EEE00AF1EEFE
S31508004FC010FA08DCF1EE600AB4EEE00AF1EE10FA27
S31508004FD001D3F0EE400A10EE901A1F4AC0ED050AFA
S31508004FE091420ADA10EE901A1C4A914205D290EDC7
S31508004FF0070A30EE200A80ED070A90ED070A90EDC1
S31508005000091AB4EEC10AF1EE10FA08DCB1EE411A3B
S31508005010B4EEC10AF1EE10FA01D3B0EE401A80EDF3
S31508005020071A90ED020A70EEE11A90ED032A20EEB7
S31508005030200A02EE210AD0ED041A01EE810A80ED5B
S315080050400A0AC0ED060A7047600800200000000042
S3150800505000C05A450000204100004842000048C2EE
S3150800506036483749374A90ED010AD1ED000A30EE45
S31508005070600ADFED350A10EE101A80ED050A914236
S3150800508002DD30EE600A06E010EE101A2F4A914251
S3150800509003D930EE200A80ED050A10EE101A2C4AC4
S315080050A0914202DD9FED2B0A06E010EE101A2A4AFD
S315080050B0914201D99FED290A294A10EE101A80ED6E
S315080050C0050A91420ADA10EE101A264A914205D2CA
S315080050D0D0ED070A70EE800AC0ED070AD0ED070A80
S315080050E090ED091AF4EEC10AF1EE10FA06DCB1EEFB
S315080050F0411AF4EEC10AF1EE10FA01D2F0EE410AB5
S31508005100C0ED070AC16A91B190ED021AD0ED061AF0
S3150800511090ED032A21EE001A70EE611A02EE211AAA
S31508005120D0ED041A01EEA01A80ED0A1A03E0DFEDAD
S315080051300E0AC0ED0A0A80ED060A7047000800202C
S3150800514008060020000034430000B443000034C3BE
S315080051500000484200004842000048C2000048C219
S3150800516000002041000020C1000000000020044A81
S3150800517001461154401CC0B20928FAD370470000F2
S31508005180386C00202DE9F84301250746ADF8005094
S315080051901B4800264670ADF800501A4C80464FF65C
S315080051A0FF7924E0BDF80000384202D0C4F8B052B6
S315080051B001E0C4F8B062C4F8A052052006F040FC2D
S315080051C0C4F8A062052006F03BFCC4F8A052D4F847
S315080051D03C0230B198F80110BDF80020114388F858
S315080051E00110BDF8001009EA4100ADF80000BDF84D
S315080051F00000FF28D6D9BDE8F843102006F020BCE9
S31508005200386C00200000424270B5FFF7AFFF00F08F
S3150800521013F90B480B4AB0F803400A481032848049
S315080052200020012512F8103000F101005B1E05FA76
S3150800523003F12142C0B202D01028F3D3002070BD7A
S31508005240386C00207805002010B5154C0020C4F8ED
S31508005250A802102004F52A7406F0F2FB0120FFF7D5
S3150800526091FF4320FFF78EFF0020FFF78BFF0120F9
S31508005270FFF788FF0020FFF785FF0020FFF782FF72
S315080052800020FFF77FFF0020FFF77CFF0020FFF7D5
S3150800529079FF01202060BDE81040102006F0D0BB41
S315080052A00000424210B5154C0020C4F8A802102090
S315080052B004F52A7406F0C4FB0120FFF763FF4320B8
S315080052C0FFF760FF0020FFF75DFF0020FFF75AFF9A
S315080052D05A20FFF757FF5A20FFF754FF5A20FFF7C7
S315080052E051FF5A20FFF74EFF5A20FFF74BFF0120C8
S315080052F02060BDE81040102006F0A2BB0000424224
S315080053007CB50121102000F04FF94FF4004000242D
S3150800531000908DF8044003208DF805000C4E0225F8
S315080053208DF8075069463046FEF76EF801218DF86C
S3150800533004108DF806404FF4A8508DF805500090DB
S315080053408DF8071069463046FEF75EF87CBD00000A
S315080053500010024010B5FFF757FF00EE100A274865
S315080053602C4BB8EE400A012280ED000A2448C17988
S3150800537000EE901A2349F8EE600AC1ED000A017A98
S3150800538000EE901A2049F8EE600AC1ED000A41794C
S3150800539001EE101A1D49B8EE411A81ED001A8079FE
S315080053A010EE101A01EE100A1948B1F1814FB8EE45
S315080053B0411A80ED001A184801D10178E1B1D9687F
S315080053C0002918D010EE901A144B994213DA017876
S315080053D0002910D112494968B1F57A7F0BDB1149CA
S315080053E002700020087010490870104908701049AA
S315080053F008701049087010BDDA60E3E71004002051
S31508005400386C002000040020040400200804002052
S315080054100C04002078050020900300200000EC42D0
S31508005420D41100209203002091030020930300204A
S31508005430F8030020F90300202DE9FC4100268DF829
S3150800544000600125ADF80450224CC4F8A862224F2A
S315080054503878FFF797FE7878FFF794FE02208DF8E4
S3150800546000001E4F4FF6FF782CE0ADF804501DE003
S31508005470C4F8A052052006F0E3FAC4F8A062052095
S3150800548006F0DEFAC4F8A052D4F83C0240B19DF802
S315080054900000BDF80410385C08439DF800107854E5
S315080054A0BDF8041008EA4100ADF80400BDF8040090
S315080054B0FF28DDD9102006F0C3FA9DF80000401C2D
S315080054C08DF800009DF800000928CED3C4F8A8522C
S315080054D0BDE8FC810000424279050020386C0020B6
S315080054E010B500F00DF800F00BF800F009F8FFF71A
S315080054F0ABFE00F027F8BDE81040FFF7D3BE00006A
S3150800550010B50F4C0020C4F8A802102004F52A7420
